{
  "contractName": "NFTMarketplace",
  "abi": [
    {
      "inputs": [
        {
          "internalType": "string",
          "name": "name",
          "type": "string"
        },
        {
          "internalType": "string",
          "name": "symbol",
          "type": "string"
        },
        {
          "internalType": "uint256",
          "name": "commission",
          "type": "uint256"
        }
      ],
      "stateMutability": "nonpayable",
      "type": "constructor"
    },
    {
      "anonymous": false,
      "inputs": [
        {
          "indexed": true,
          "internalType": "address",
          "name": "owner",
          "type": "address"
        },
        {
          "indexed": true,
          "internalType": "address",
          "name": "approved",
          "type": "address"
        },
        {
          "indexed": true,
          "internalType": "uint256",
          "name": "tokenId",
          "type": "uint256"
        }
      ],
      "name": "Approval",
      "type": "event"
    },
    {
      "anonymous": false,
      "inputs": [
        {
          "indexed": true,
          "internalType": "address",
          "name": "owner",
          "type": "address"
        },
        {
          "indexed": true,
          "internalType": "address",
          "name": "operator",
          "type": "address"
        },
        {
          "indexed": false,
          "internalType": "bool",
          "name": "approved",
          "type": "bool"
        }
      ],
      "name": "ApprovalForAll",
      "type": "event"
    },
    {
      "anonymous": false,
      "inputs": [
        {
          "indexed": true,
          "internalType": "address",
          "name": "previousOwner",
          "type": "address"
        },
        {
          "indexed": true,
          "internalType": "address",
          "name": "newOwner",
          "type": "address"
        }
      ],
      "name": "OwnershipTransferred",
      "type": "event"
    },
    {
      "anonymous": false,
      "inputs": [
        {
          "indexed": true,
          "internalType": "address",
          "name": "from",
          "type": "address"
        },
        {
          "indexed": true,
          "internalType": "address",
          "name": "to",
          "type": "address"
        },
        {
          "indexed": true,
          "internalType": "uint256",
          "name": "tokenId",
          "type": "uint256"
        }
      ],
      "name": "Transfer",
      "type": "event"
    },
    {
      "inputs": [
        {
          "internalType": "address",
          "name": "to",
          "type": "address"
        },
        {
          "internalType": "uint256",
          "name": "tokenId",
          "type": "uint256"
        }
      ],
      "name": "approve",
      "outputs": [],
      "stateMutability": "nonpayable",
      "type": "function"
    },
    {
      "inputs": [
        {
          "internalType": "address",
          "name": "owner",
          "type": "address"
        }
      ],
      "name": "balanceOf",
      "outputs": [
        {
          "internalType": "uint256",
          "name": "",
          "type": "uint256"
        }
      ],
      "stateMutability": "view",
      "type": "function",
      "constant": true
    },
    {
      "inputs": [],
      "name": "commisionOwner",
      "outputs": [
        {
          "internalType": "address payable",
          "name": "",
          "type": "address"
        }
      ],
      "stateMutability": "view",
      "type": "function",
      "constant": true
    },
    {
      "inputs": [],
      "name": "commissionPercentage",
      "outputs": [
        {
          "internalType": "uint256",
          "name": "",
          "type": "uint256"
        }
      ],
      "stateMutability": "view",
      "type": "function",
      "constant": true
    },
    {
      "inputs": [
        {
          "internalType": "uint256",
          "name": "tokenId",
          "type": "uint256"
        }
      ],
      "name": "getApproved",
      "outputs": [
        {
          "internalType": "address",
          "name": "",
          "type": "address"
        }
      ],
      "stateMutability": "view",
      "type": "function",
      "constant": true
    },
    {
      "inputs": [
        {
          "internalType": "address",
          "name": "owner",
          "type": "address"
        },
        {
          "internalType": "address",
          "name": "operator",
          "type": "address"
        }
      ],
      "name": "isApprovedForAll",
      "outputs": [
        {
          "internalType": "bool",
          "name": "",
          "type": "bool"
        }
      ],
      "stateMutability": "view",
      "type": "function",
      "constant": true
    },
    {
      "inputs": [],
      "name": "name",
      "outputs": [
        {
          "internalType": "string",
          "name": "",
          "type": "string"
        }
      ],
      "stateMutability": "view",
      "type": "function",
      "constant": true
    },
    {
      "inputs": [],
      "name": "nftCounter",
      "outputs": [
        {
          "internalType": "uint256",
          "name": "",
          "type": "uint256"
        }
      ],
      "stateMutability": "view",
      "type": "function",
      "constant": true
    },
    {
      "inputs": [
        {
          "internalType": "uint256",
          "name": "",
          "type": "uint256"
        }
      ],
      "name": "nfts",
      "outputs": [
        {
          "internalType": "uint256",
          "name": "id",
          "type": "uint256"
        },
        {
          "internalType": "address",
          "name": "owner",
          "type": "address"
        },
        {
          "internalType": "uint256",
          "name": "price",
          "type": "uint256"
        },
        {
          "internalType": "bool",
          "name": "forSale",
          "type": "bool"
        },
        {
          "internalType": "string",
          "name": "name",
          "type": "string"
        },
        {
          "internalType": "string",
          "name": "description",
          "type": "string"
        }
      ],
      "stateMutability": "view",
      "type": "function",
      "constant": true
    },
    {
      "inputs": [],
      "name": "owner",
      "outputs": [
        {
          "internalType": "address",
          "name": "",
          "type": "address"
        }
      ],
      "stateMutability": "view",
      "type": "function",
      "constant": true
    },
    {
      "inputs": [
        {
          "internalType": "uint256",
          "name": "tokenId",
          "type": "uint256"
        }
      ],
      "name": "ownerOf",
      "outputs": [
        {
          "internalType": "address",
          "name": "",
          "type": "address"
        }
      ],
      "stateMutability": "view",
      "type": "function",
      "constant": true
    },
    {
      "inputs": [],
      "name": "renounceOwnership",
      "outputs": [],
      "stateMutability": "nonpayable",
      "type": "function"
    },
    {
      "inputs": [
        {
          "internalType": "address",
          "name": "from",
          "type": "address"
        },
        {
          "internalType": "address",
          "name": "to",
          "type": "address"
        },
        {
          "internalType": "uint256",
          "name": "tokenId",
          "type": "uint256"
        }
      ],
      "name": "safeTransferFrom",
      "outputs": [],
      "stateMutability": "nonpayable",
      "type": "function"
    },
    {
      "inputs": [
        {
          "internalType": "address",
          "name": "from",
          "type": "address"
        },
        {
          "internalType": "address",
          "name": "to",
          "type": "address"
        },
        {
          "internalType": "uint256",
          "name": "tokenId",
          "type": "uint256"
        },
        {
          "internalType": "bytes",
          "name": "data",
          "type": "bytes"
        }
      ],
      "name": "safeTransferFrom",
      "outputs": [],
      "stateMutability": "nonpayable",
      "type": "function"
    },
    {
      "inputs": [
        {
          "internalType": "address",
          "name": "operator",
          "type": "address"
        },
        {
          "internalType": "bool",
          "name": "approved",
          "type": "bool"
        }
      ],
      "name": "setApprovalForAll",
      "outputs": [],
      "stateMutability": "nonpayable",
      "type": "function"
    },
    {
      "inputs": [
        {
          "internalType": "bytes4",
          "name": "interfaceId",
          "type": "bytes4"
        }
      ],
      "name": "supportsInterface",
      "outputs": [
        {
          "internalType": "bool",
          "name": "",
          "type": "bool"
        }
      ],
      "stateMutability": "view",
      "type": "function",
      "constant": true
    },
    {
      "inputs": [],
      "name": "symbol",
      "outputs": [
        {
          "internalType": "string",
          "name": "",
          "type": "string"
        }
      ],
      "stateMutability": "view",
      "type": "function",
      "constant": true
    },
    {
      "inputs": [
        {
          "internalType": "uint256",
          "name": "tokenId",
          "type": "uint256"
        }
      ],
      "name": "tokenURI",
      "outputs": [
        {
          "internalType": "string",
          "name": "",
          "type": "string"
        }
      ],
      "stateMutability": "view",
      "type": "function",
      "constant": true
    },
    {
      "inputs": [
        {
          "internalType": "address",
          "name": "from",
          "type": "address"
        },
        {
          "internalType": "address",
          "name": "to",
          "type": "address"
        },
        {
          "internalType": "uint256",
          "name": "tokenId",
          "type": "uint256"
        }
      ],
      "name": "transferFrom",
      "outputs": [],
      "stateMutability": "nonpayable",
      "type": "function"
    },
    {
      "inputs": [
        {
          "internalType": "address",
          "name": "newOwner",
          "type": "address"
        }
      ],
      "name": "transferOwnership",
      "outputs": [],
      "stateMutability": "nonpayable",
      "type": "function"
    },
    {
      "inputs": [],
      "name": "mintNFT",
      "outputs": [],
      "stateMutability": "nonpayable",
      "type": "function"
    },
    {
      "inputs": [
        {
          "internalType": "uint256",
          "name": "id",
          "type": "uint256"
        },
        {
          "internalType": "string",
          "name": "name",
          "type": "string"
        },
        {
          "internalType": "string",
          "name": "description",
          "type": "string"
        }
      ],
      "name": "createNFT",
      "outputs": [],
      "stateMutability": "nonpayable",
      "type": "function"
    },
    {
      "inputs": [
        {
          "internalType": "uint256",
          "name": "id",
          "type": "uint256"
        }
      ],
      "name": "getNFT",
      "outputs": [
        {
          "components": [
            {
              "internalType": "uint256",
              "name": "id",
              "type": "uint256"
            },
            {
              "internalType": "address",
              "name": "owner",
              "type": "address"
            },
            {
              "internalType": "uint256",
              "name": "price",
              "type": "uint256"
            },
            {
              "internalType": "bool",
              "name": "forSale",
              "type": "bool"
            },
            {
              "internalType": "string",
              "name": "name",
              "type": "string"
            },
            {
              "internalType": "string",
              "name": "description",
              "type": "string"
            }
          ],
          "internalType": "struct NFTMarketplace.NFT",
          "name": "",
          "type": "tuple"
        }
      ],
      "stateMutability": "view",
      "type": "function",
      "constant": true
    },
    {
      "inputs": [
        {
          "internalType": "uint256",
          "name": "id",
          "type": "uint256"
        },
        {
          "internalType": "address",
          "name": "to",
          "type": "address"
        }
      ],
      "name": "transferNFT",
      "outputs": [],
      "stateMutability": "nonpayable",
      "type": "function"
    },
    {
      "inputs": [
        {
          "internalType": "uint256",
          "name": "id",
          "type": "uint256"
        },
        {
          "internalType": "uint256",
          "name": "price",
          "type": "uint256"
        }
      ],
      "name": "listNFTForSale",
      "outputs": [],
      "stateMutability": "nonpayable",
      "type": "function"
    },
    {
      "inputs": [
        {
          "internalType": "uint256",
          "name": "id",
          "type": "uint256"
        }
      ],
      "name": "removeNFTFromSale",
      "outputs": [],
      "stateMutability": "nonpayable",
      "type": "function"
    },
    {
      "inputs": [
        {
          "internalType": "uint256",
          "name": "id",
          "type": "uint256"
        }
      ],
      "name": "purchaseNFT",
      "outputs": [],
      "stateMutability": "payable",
      "type": "function",
      "payable": true
    },
    {
      "inputs": [],
      "name": "withdraw",
      "outputs": [],
      "stateMutability": "nonpayable",
      "type": "function"
    }
  ],
  "bytecode": "0x60a06040523480156200001157600080fd5b506040516200450938038062004509833981810160405281019062000037919062000427565b82828160009080519060200190620000519291906200019f565b5080600190805190602001906200006a9291906200019f565b5050506200008d62000081620000d160201b60201c565b620000d960201b60201c565b806009819055503373ffffffffffffffffffffffffffffffffffffffff1660808173ffffffffffffffffffffffffffffffffffffffff168152505050505062000525565b600033905090565b6000600660009054906101000a900473ffffffffffffffffffffffffffffffffffffffff16905081600660006101000a81548173ffffffffffffffffffffffffffffffffffffffff021916908373ffffffffffffffffffffffffffffffffffffffff1602179055508173ffffffffffffffffffffffffffffffffffffffff168173ffffffffffffffffffffffffffffffffffffffff167f8be0079c531659141344cd1fd0a4f28419497f9722a3daafe3b4186f6b6457e060405160405180910390a35050565b828054620001ad90620004f0565b90600052602060002090601f016020900481019282620001d157600085556200021d565b82601f10620001ec57805160ff19168380011785556200021d565b828001600101855582156200021d579182015b828111156200021c578251825591602001919060010190620001ff565b5b5090506200022c919062000230565b5090565b5b808211156200024b57600081600090555060010162000231565b5090565b6000604051905090565b600080fd5b600080fd5b600080fd5b600080fd5b6000601f19601f8301169050919050565b7f4e487b7100000000000000000000000000000000000000000000000000000000600052604160045260246000fd5b620002b8826200026d565b810181811067ffffffffffffffff82111715620002da57620002d96200027e565b5b80604052505050565b6000620002ef6200024f565b9050620002fd8282620002ad565b919050565b600067ffffffffffffffff82111562000320576200031f6200027e565b5b6200032b826200026d565b9050602081019050919050565b60005b83811015620003585780820151818401526020810190506200033b565b8381111562000368576000848401525b50505050565b6000620003856200037f8462000302565b620002e3565b905082815260208101848484011115620003a457620003a362000268565b5b620003b184828562000338565b509392505050565b600082601f830112620003d157620003d062000263565b5b8151620003e38482602086016200036e565b91505092915050565b6000819050919050565b6200040181620003ec565b81146200040d57600080fd5b50565b6000815190506200042181620003f6565b92915050565b60008060006060848603121562000443576200044262000259565b5b600084015167ffffffffffffffff8111156200046457620004636200025e565b5b6200047286828701620003b9565b935050602084015167ffffffffffffffff8111156200049657620004956200025e565b5b620004a486828701620003b9565b9250506040620004b78682870162000410565b9150509250925092565b7f4e487b7100000000000000000000000000000000000000000000000000000000600052602260045260246000fd5b600060028204905060018216806200050957607f821691505b6020821081036200051f576200051e620004c1565b5b50919050565b608051613fc16200054860003960008181610dad01526113720152613fc16000f3fe6080604052600436106101b75760003560e01c806370a08231116100ec578063b2733b391161008a578063d575fe6411610064578063d575fe64146105ea578063e574609e14610615578063e985e9c514610640578063f2fde38b1461067d576101b7565b8063b2733b391461055b578063b88d4fde14610584578063c87b56dd146105ad576101b7565b80639036c050116100c65780639036c050146104b557806395d89b41146104de578063a02e510714610509578063a22cb46514610532576101b7565b806370a0823114610436578063715018a6146104735780638da5cb5b1461048a576101b7565b806323b872dd1161015957806342842e0e1161013357806342842e0e14610368578063576f7ea7146103915780636352211e146103ce5780636f35fef81461040b576101b7565b806323b872dd146102e6578063265aa6211461030f5780633ccfd60b14610351576101b7565b8063081812fc11610195578063081812fc1461024d578063095ea7b31461028a57806314f710fe146102b3578063150bde03146102ca576101b7565b806301ffc9a7146101bc57806304366881146101f957806306fdde0314610222575b600080fd5b3480156101c857600080fd5b506101e360048036038101906101de9190612ae4565b6106a6565b6040516101f09190612b2c565b60405180910390f35b34801561020557600080fd5b50610220600480360381019061021b9190612cc3565b610788565b005b34801561022e57600080fd5b506102376108c3565b6040516102449190612dd6565b60405180910390f35b34801561025957600080fd5b50610274600480360381019061026f9190612df8565b610955565b6040516102819190612e66565b60405180910390f35b34801561029657600080fd5b506102b160048036038101906102ac9190612ead565b61099b565b005b3480156102bf57600080fd5b506102c8610ab2565b005b6102e460048036038101906102df9190612df8565b610c0c565b005b3480156102f257600080fd5b5061030d60048036038101906103089190612eed565b610ec3565b005b34801561031b57600080fd5b5061033660048036038101906103319190612df8565b610f23565b60405161034896959493929190612f4f565b60405180910390f35b34801561035d57600080fd5b5061036661109c565b005b34801561037457600080fd5b5061038f600480360381019061038a9190612eed565b6110f4565b005b34801561039d57600080fd5b506103b860048036038101906103b39190612df8565b611114565b6040516103c591906130c5565b60405180910390f35b3480156103da57600080fd5b506103f560048036038101906103f09190612df8565b6112ea565b6040516104029190612e66565b60405180910390f35b34801561041757600080fd5b50610420611370565b60405161042d9190613108565b60405180910390f35b34801561044257600080fd5b5061045d60048036038101906104589190613123565b611394565b60405161046a9190613150565b60405180910390f35b34801561047f57600080fd5b5061048861144b565b005b34801561049657600080fd5b5061049f61145f565b6040516104ac9190612e66565b60405180910390f35b3480156104c157600080fd5b506104dc60048036038101906104d7919061316b565b611489565b005b3480156104ea57600080fd5b506104f36115ab565b6040516105009190612dd6565b60405180910390f35b34801561051557600080fd5b50610530600480360381019061052b9190612df8565b61163d565b005b34801561053e57600080fd5b50610559600480360381019061055491906131d7565b61176b565b005b34801561056757600080fd5b50610582600480360381019061057d9190613217565b611781565b005b34801561059057600080fd5b506105ab60048036038101906105a691906132f8565b611888565b005b3480156105b957600080fd5b506105d460048036038101906105cf9190612df8565b6118ea565b6040516105e19190612dd6565b60405180910390f35b3480156105f657600080fd5b506105ff611952565b60405161060c9190613150565b60405180910390f35b34801561062157600080fd5b5061062a611958565b6040516106379190613150565b60405180910390f35b34801561064c57600080fd5b506106676004803603810190610662919061337b565b61195e565b6040516106749190612b2c565b60405180910390f35b34801561068957600080fd5b506106a4600480360381019061069f9190613123565b6119f2565b005b60007f80ac58cd000000000000000000000000000000000000000000000000000000007bffffffffffffffffffffffffffffffffffffffffffffffffffffffff1916827bffffffffffffffffffffffffffffffffffffffffffffffffffffffff1916148061077157507f5b5e139f000000000000000000000000000000000000000000000000000000007bffffffffffffffffffffffffffffffffffffffffffffffffffffffff1916827bffffffffffffffffffffffffffffffffffffffffffffffffffffffff1916145b80610781575061078082611a75565b5b9050919050565b6008600081548092919061079b906133ea565b91905055506107aa3384611adf565b6040518060c001604052808481526020013373ffffffffffffffffffffffffffffffffffffffff16815260200160008152602001600015158152602001838152602001828152506007600060085481526020019081526020016000206000820151816000015560208201518160010160006101000a81548173ffffffffffffffffffffffffffffffffffffffff021916908373ffffffffffffffffffffffffffffffffffffffff1602179055506040820151816002015560608201518160030160006101000a81548160ff021916908315150217905550608082015181600401908051906020019061089d929190612987565b5060a08201518160050190805190602001906108ba929190612987565b50905050505050565b6060600080546108d290613461565b80601f01602080910402602001604051908101604052809291908181526020018280546108fe90613461565b801561094b5780601f106109205761010080835404028352916020019161094b565b820191906000526020600020905b81548152906001019060200180831161092e57829003601f168201915b5050505050905090565b600061096082611afd565b6004600083815260200190815260200160002060009054906101000a900473ffffffffffffffffffffffffffffffffffffffff169050919050565b60006109a6826112ea565b90508073ffffffffffffffffffffffffffffffffffffffff168373ffffffffffffffffffffffffffffffffffffffff1603610a16576040517f08c379a0000000000000000000000000000000000000000000000000000000008152600401610a0d90613504565b60405180910390fd5b8073ffffffffffffffffffffffffffffffffffffffff16610a35611b48565b73ffffffffffffffffffffffffffffffffffffffff161480610a645750610a6381610a5e611b48565b61195e565b5b610aa3576040517f08c379a0000000000000000000000000000000000000000000000000000000008152600401610a9a90613596565b60405180910390fd5b610aad8383611b50565b505050565b60086000815480929190610ac5906133ea565b9190505550610ad633600854611adf565b6040518060c0016040528060085481526020013373ffffffffffffffffffffffffffffffffffffffff16815260200160008152602001600015158152602001604051806020016040528060008152508152602001604051806020016040528060008152508152506007600060085481526020019081526020016000206000820151816000015560208201518160010160006101000a81548173ffffffffffffffffffffffffffffffffffffffff021916908373ffffffffffffffffffffffffffffffffffffffff1602179055506040820151816002015560608201518160030160006101000a81548160ff0219169083151502179055506080820151816004019080519060200190610be9929190612987565b5060a0820151816005019080519060200190610c06929190612987565b50905050565b600115156007600083815260200190815260200160002060030160009054906101000a900460ff16151514610c76576040517f08c379a0000000000000000000000000000000000000000000000000000000008152600401610c6d90613602565b60405180910390fd5b600060646009546007600085815260200190815260200160002060020154610c9e9190613622565b610ca891906136ab565b90506007600083815260200190815260200160002060020154341015610d03576040517f08c379a0000000000000000000000000000000000000000000000000000000008152600401610cfa90613728565b60405180910390fd5b60006007600084815260200190815260200160002060010160009054906101000a900473ffffffffffffffffffffffffffffffffffffffff1690506000600760008581526020019081526020016000206002015490508173ffffffffffffffffffffffffffffffffffffffff166108fc8483610d7f9190613748565b9081150290604051600060405180830381858888f19350505050158015610daa573d6000803e3d6000fd5b507f000000000000000000000000000000000000000000000000000000000000000073ffffffffffffffffffffffffffffffffffffffff166108fc849081150290604051600060405180830381858888f19350505050158015610e11573d6000803e3d6000fd5b50610e1d823386611c09565b336007600086815260200190815260200160002060010160006101000a81548173ffffffffffffffffffffffffffffffffffffffff021916908373ffffffffffffffffffffffffffffffffffffffff1602179055506000600760008681526020019081526020016000206002018190555060006007600086815260200190815260200160002060030160006101000a81548160ff02191690831515021790555050505050565b610ed4610ece611b48565b82611f02565b610f13576040517f08c379a0000000000000000000000000000000000000000000000000000000008152600401610f0a906137ee565b60405180910390fd5b610f1e838383611c09565b505050565b60076020528060005260406000206000915090508060000154908060010160009054906101000a900473ffffffffffffffffffffffffffffffffffffffff16908060020154908060030160009054906101000a900460ff1690806004018054610f8b90613461565b80601f0160208091040260200160405190810160405280929190818152602001828054610fb790613461565b80156110045780601f10610fd957610100808354040283529160200191611004565b820191906000526020600020905b815481529060010190602001808311610fe757829003601f168201915b50505050509080600501805461101990613461565b80601f016020809104026020016040519081016040528092919081815260200182805461104590613461565b80156110925780601f1061106757610100808354040283529160200191611092565b820191906000526020600020905b81548152906001019060200180831161107557829003601f168201915b5050505050905086565b6110a4611f97565b6110ac61145f565b73ffffffffffffffffffffffffffffffffffffffff166108fc479081150290604051600060405180830381858888f193505050501580156110f1573d6000803e3d6000fd5b50565b61110f83838360405180602001604052806000815250611888565b505050565b61111c612a0d565b600760008381526020019081526020016000206040518060c0016040529081600082015481526020016001820160009054906101000a900473ffffffffffffffffffffffffffffffffffffffff1673ffffffffffffffffffffffffffffffffffffffff1673ffffffffffffffffffffffffffffffffffffffff168152602001600282015481526020016003820160009054906101000a900460ff161515151581526020016004820180546111cf90613461565b80601f01602080910402602001604051908101604052809291908181526020018280546111fb90613461565b80156112485780601f1061121d57610100808354040283529160200191611248565b820191906000526020600020905b81548152906001019060200180831161122b57829003601f168201915b5050505050815260200160058201805461126190613461565b80601f016020809104026020016040519081016040528092919081815260200182805461128d90613461565b80156112da5780601f106112af576101008083540402835291602001916112da565b820191906000526020600020905b8154815290600101906020018083116112bd57829003601f168201915b5050505050815250509050919050565b6000806112f683612015565b9050600073ffffffffffffffffffffffffffffffffffffffff168173ffffffffffffffffffffffffffffffffffffffff1603611367576040517f08c379a000000000000000000000000000000000000000000000000000000000815260040161135e9061385a565b60405180910390fd5b80915050919050565b7f000000000000000000000000000000000000000000000000000000000000000081565b60008073ffffffffffffffffffffffffffffffffffffffff168273ffffffffffffffffffffffffffffffffffffffff1603611404576040517f08c379a00000000000000000000000000000000000000000000000000000000081526004016113fb906138ec565b60405180910390fd5b600360008373ffffffffffffffffffffffffffffffffffffffff1673ffffffffffffffffffffffffffffffffffffffff168152602001908152602001600020549050919050565b611453611f97565b61145d6000612052565b565b6000600660009054906101000a900473ffffffffffffffffffffffffffffffffffffffff16905090565b61149282612118565b6114d1576040517f08c379a00000000000000000000000000000000000000000000000000000000081526004016114c890613958565b60405180910390fd5b3373ffffffffffffffffffffffffffffffffffffffff166114f1836112ea565b73ffffffffffffffffffffffffffffffffffffffff1614611547576040517f08c379a000000000000000000000000000000000000000000000000000000000815260040161153e906139c4565b60405180910390fd5b6115523382846110f4565b806007600084815260200190815260200160002060010160006101000a81548173ffffffffffffffffffffffffffffffffffffffff021916908373ffffffffffffffffffffffffffffffffffffffff1602179055505050565b6060600180546115ba90613461565b80601f01602080910402602001604051908101604052809291908181526020018280546115e690613461565b80156116335780601f1061160857610100808354040283529160200191611633565b820191906000526020600020905b81548152906001019060200180831161161657829003601f168201915b5050505050905090565b3373ffffffffffffffffffffffffffffffffffffffff1661165d826112ea565b73ffffffffffffffffffffffffffffffffffffffff16146116b3576040517f08c379a00000000000000000000000000000000000000000000000000000000081526004016116aa906139c4565b60405180910390fd5b600115156007600083815260200190815260200160002060030160009054906101000a900460ff1615151461171d576040517f08c379a000000000000000000000000000000000000000000000000000000000815260040161171490613602565b60405180910390fd5b6000600760008381526020019081526020016000206002018190555060006007600083815260200190815260200160002060030160006101000a81548160ff02191690831515021790555050565b61177d611776611b48565b8383612159565b5050565b3373ffffffffffffffffffffffffffffffffffffffff166117a1836112ea565b73ffffffffffffffffffffffffffffffffffffffff16146117f7576040517f08c379a00000000000000000000000000000000000000000000000000000000081526004016117ee906139c4565b60405180910390fd5b6000811161183a576040517f08c379a000000000000000000000000000000000000000000000000000000000815260040161183190613a30565b60405180910390fd5b80600760008481526020019081526020016000206002018190555060016007600084815260200190815260200160002060030160006101000a81548160ff0219169083151502179055505050565b611899611893611b48565b83611f02565b6118d8576040517f08c379a00000000000000000000000000000000000000000000000000000000081526004016118cf906137ee565b60405180910390fd5b6118e4848484846122c5565b50505050565b60606118f582611afd565b60006118ff612321565b9050600081511161191f576040518060200160405280600081525061194a565b8061192984612338565b60405160200161193a929190613a8c565b6040516020818303038152906040525b915050919050565b60095481565b60085481565b6000600560008473ffffffffffffffffffffffffffffffffffffffff1673ffffffffffffffffffffffffffffffffffffffff16815260200190815260200160002060008373ffffffffffffffffffffffffffffffffffffffff1673ffffffffffffffffffffffffffffffffffffffff16815260200190815260200160002060009054906101000a900460ff16905092915050565b6119fa611f97565b600073ffffffffffffffffffffffffffffffffffffffff168173ffffffffffffffffffffffffffffffffffffffff1603611a69576040517f08c379a0000000000000000000000000000000000000000000000000000000008152600401611a6090613b22565b60405180910390fd5b611a7281612052565b50565b60007f01ffc9a7000000000000000000000000000000000000000000000000000000007bffffffffffffffffffffffffffffffffffffffffffffffffffffffff1916827bffffffffffffffffffffffffffffffffffffffffffffffffffffffff1916149050919050565b611af9828260405180602001604052806000815250612406565b5050565b611b0681612118565b611b45576040517f08c379a0000000000000000000000000000000000000000000000000000000008152600401611b3c9061385a565b60405180910390fd5b50565b600033905090565b816004600083815260200190815260200160002060006101000a81548173ffffffffffffffffffffffffffffffffffffffff021916908373ffffffffffffffffffffffffffffffffffffffff160217905550808273ffffffffffffffffffffffffffffffffffffffff16611bc3836112ea565b73ffffffffffffffffffffffffffffffffffffffff167f8c5be1e5ebec7d5bd14f71427d1e84f3dd0314c0f7b2291e5b200ac8c7c3b92560405160405180910390a45050565b8273ffffffffffffffffffffffffffffffffffffffff16611c29826112ea565b73ffffffffffffffffffffffffffffffffffffffff1614611c7f576040517f08c379a0000000000000000000000000000000000000000000000000000000008152600401611c7690613bb4565b60405180910390fd5b600073ffffffffffffffffffffffffffffffffffffffff168273ffffffffffffffffffffffffffffffffffffffff1603611cee576040517f08c379a0000000000000000000000000000000000000000000000000000000008152600401611ce590613c46565b60405180910390fd5b611cfb8383836001612461565b8273ffffffffffffffffffffffffffffffffffffffff16611d1b826112ea565b73ffffffffffffffffffffffffffffffffffffffff1614611d71576040517f08c379a0000000000000000000000000000000000000000000000000000000008152600401611d6890613bb4565b60405180910390fd5b6004600082815260200190815260200160002060006101000a81549073ffffffffffffffffffffffffffffffffffffffff02191690556001600360008573ffffffffffffffffffffffffffffffffffffffff1673ffffffffffffffffffffffffffffffffffffffff168152602001908152602001600020600082825403925050819055506001600360008473ffffffffffffffffffffffffffffffffffffffff1673ffffffffffffffffffffffffffffffffffffffff16815260200190815260200160002060008282540192505081905550816002600083815260200190815260200160002060006101000a81548173ffffffffffffffffffffffffffffffffffffffff021916908373ffffffffffffffffffffffffffffffffffffffff160217905550808273ffffffffffffffffffffffffffffffffffffffff168473ffffffffffffffffffffffffffffffffffffffff167fddf252ad1be2c89b69c2b068fc378daa952ba7f163c4a11628f55a4df523b3ef60405160405180910390a4611efd8383836001612467565b505050565b600080611f0e836112ea565b90508073ffffffffffffffffffffffffffffffffffffffff168473ffffffffffffffffffffffffffffffffffffffff161480611f505750611f4f818561195e565b5b80611f8e57508373ffffffffffffffffffffffffffffffffffffffff16611f7684610955565b73ffffffffffffffffffffffffffffffffffffffff16145b91505092915050565b611f9f611b48565b73ffffffffffffffffffffffffffffffffffffffff16611fbd61145f565b73ffffffffffffffffffffffffffffffffffffffff1614612013576040517f08c379a000000000000000000000000000000000000000000000000000000000815260040161200a90613cb2565b60405180910390fd5b565b60006002600083815260200190815260200160002060009054906101000a900473ffffffffffffffffffffffffffffffffffffffff169050919050565b6000600660009054906101000a900473ffffffffffffffffffffffffffffffffffffffff16905081600660006101000a81548173ffffffffffffffffffffffffffffffffffffffff021916908373ffffffffffffffffffffffffffffffffffffffff1602179055508173ffffffffffffffffffffffffffffffffffffffff168173ffffffffffffffffffffffffffffffffffffffff167f8be0079c531659141344cd1fd0a4f28419497f9722a3daafe3b4186f6b6457e060405160405180910390a35050565b60008073ffffffffffffffffffffffffffffffffffffffff1661213a83612015565b73ffffffffffffffffffffffffffffffffffffffff1614159050919050565b8173ffffffffffffffffffffffffffffffffffffffff168373ffffffffffffffffffffffffffffffffffffffff16036121c7576040517f08c379a00000000000000000000000000000000000000000000000000000000081526004016121be90613d1e565b60405180910390fd5b80600560008573ffffffffffffffffffffffffffffffffffffffff1673ffffffffffffffffffffffffffffffffffffffff16815260200190815260200160002060008473ffffffffffffffffffffffffffffffffffffffff1673ffffffffffffffffffffffffffffffffffffffff16815260200190815260200160002060006101000a81548160ff0219169083151502179055508173ffffffffffffffffffffffffffffffffffffffff168373ffffffffffffffffffffffffffffffffffffffff167f17307eab39ab6107e8899845ad3d59bd9653f200f220920489ca2b5937696c31836040516122b89190612b2c565b60405180910390a3505050565b6122d0848484611c09565b6122dc8484848461246d565b61231b576040517f08c379a000000000000000000000000000000000000000000000000000000000815260040161231290613db0565b60405180910390fd5b50505050565b606060405180602001604052806000815250905090565b606060006001612347846125f4565b01905060008167ffffffffffffffff81111561236657612365612b98565b5b6040519080825280601f01601f1916602001820160405280156123985781602001600182028036833780820191505090505b509050600082602001820190505b6001156123fb578080600190039150507f3031323334353637383961626364656600000000000000000000000000000000600a86061a8153600a85816123ef576123ee61367c565b5b049450600085036123a6575b819350505050919050565b6124108383612747565b61241d600084848461246d565b61245c576040517f08c379a000000000000000000000000000000000000000000000000000000000815260040161245390613db0565b60405180910390fd5b505050565b50505050565b50505050565b600061248e8473ffffffffffffffffffffffffffffffffffffffff16612964565b156125e7578373ffffffffffffffffffffffffffffffffffffffff1663150b7a026124b7611b48565b8786866040518563ffffffff1660e01b81526004016124d99493929190613e25565b6020604051808303816000875af192505050801561251557506040513d601f19601f820116820180604052508101906125129190613e86565b60015b612597573d8060008114612545576040519150601f19603f3d011682016040523d82523d6000602084013e61254a565b606091505b50600081510361258f576040517f08c379a000000000000000000000000000000000000000000000000000000000815260040161258690613db0565b60405180910390fd5b805181602001fd5b63150b7a0260e01b7bffffffffffffffffffffffffffffffffffffffffffffffffffffffff1916817bffffffffffffffffffffffffffffffffffffffffffffffffffffffff1916149150506125ec565b600190505b949350505050565b600080600090507a184f03e93ff9f4daa797ed6e38ed64bf6a1f0100000000000000008310612652577a184f03e93ff9f4daa797ed6e38ed64bf6a1f01000000000000000083816126485761264761367c565b5b0492506040810190505b6d04ee2d6d415b85acef8100000000831061268f576d04ee2d6d415b85acef810000000083816126855761268461367c565b5b0492506020810190505b662386f26fc1000083106126be57662386f26fc1000083816126b4576126b361367c565b5b0492506010810190505b6305f5e10083106126e7576305f5e10083816126dd576126dc61367c565b5b0492506008810190505b612710831061270c5761271083816127025761270161367c565b5b0492506004810190505b6064831061272f57606483816127255761272461367c565b5b0492506002810190505b600a831061273e576001810190505b80915050919050565b600073ffffffffffffffffffffffffffffffffffffffff168273ffffffffffffffffffffffffffffffffffffffff16036127b6576040517f08c379a00000000000000000000000000000000000000000000000000000000081526004016127ad90613eff565b60405180910390fd5b6127bf81612118565b156127ff576040517f08c379a00000000000000000000000000000000000000000000000000000000081526004016127f690613f6b565b60405180910390fd5b61280d600083836001612461565b61281681612118565b15612856576040517f08c379a000000000000000000000000000000000000000000000000000000000815260040161284d90613f6b565b60405180910390fd5b6001600360008473ffffffffffffffffffffffffffffffffffffffff1673ffffffffffffffffffffffffffffffffffffffff16815260200190815260200160002060008282540192505081905550816002600083815260200190815260200160002060006101000a81548173ffffffffffffffffffffffffffffffffffffffff021916908373ffffffffffffffffffffffffffffffffffffffff160217905550808273ffffffffffffffffffffffffffffffffffffffff16600073ffffffffffffffffffffffffffffffffffffffff167fddf252ad1be2c89b69c2b068fc378daa952ba7f163c4a11628f55a4df523b3ef60405160405180910390a4612960600083836001612467565b5050565b6000808273ffffffffffffffffffffffffffffffffffffffff163b119050919050565b82805461299390613461565b90600052602060002090601f0160209004810192826129b557600085556129fc565b82601f106129ce57805160ff19168380011785556129fc565b828001600101855582156129fc579182015b828111156129fb5782518255916020019190600101906129e0565b5b509050612a099190612a5b565b5090565b6040518060c0016040528060008152602001600073ffffffffffffffffffffffffffffffffffffffff1681526020016000815260200160001515815260200160608152602001606081525090565b5b80821115612a74576000816000905550600101612a5c565b5090565b6000604051905090565b600080fd5b600080fd5b60007fffffffff0000000000000000000000000000000000000000000000000000000082169050919050565b612ac181612a8c565b8114612acc57600080fd5b50565b600081359050612ade81612ab8565b92915050565b600060208284031215612afa57612af9612a82565b5b6000612b0884828501612acf565b91505092915050565b60008115159050919050565b612b2681612b11565b82525050565b6000602082019050612b416000830184612b1d565b92915050565b6000819050919050565b612b5a81612b47565b8114612b6557600080fd5b50565b600081359050612b7781612b51565b92915050565b600080fd5b600080fd5b6000601f19601f8301169050919050565b7f4e487b7100000000000000000000000000000000000000000000000000000000600052604160045260246000fd5b612bd082612b87565b810181811067ffffffffffffffff82111715612bef57612bee612b98565b5b80604052505050565b6000612c02612a78565b9050612c0e8282612bc7565b919050565b600067ffffffffffffffff821115612c2e57612c2d612b98565b5b612c3782612b87565b9050602081019050919050565b82818337600083830152505050565b6000612c66612c6184612c13565b612bf8565b905082815260208101848484011115612c8257612c81612b82565b5b612c8d848285612c44565b509392505050565b600082601f830112612caa57612ca9612b7d565b5b8135612cba848260208601612c53565b91505092915050565b600080600060608486031215612cdc57612cdb612a82565b5b6000612cea86828701612b68565b935050602084013567ffffffffffffffff811115612d0b57612d0a612a87565b5b612d1786828701612c95565b925050604084013567ffffffffffffffff811115612d3857612d37612a87565b5b612d4486828701612c95565b9150509250925092565b600081519050919050565b600082825260208201905092915050565b60005b83811015612d88578082015181840152602081019050612d6d565b83811115612d97576000848401525b50505050565b6000612da882612d4e565b612db28185612d59565b9350612dc2818560208601612d6a565b612dcb81612b87565b840191505092915050565b60006020820190508181036000830152612df08184612d9d565b905092915050565b600060208284031215612e0e57612e0d612a82565b5b6000612e1c84828501612b68565b91505092915050565b600073ffffffffffffffffffffffffffffffffffffffff82169050919050565b6000612e5082612e25565b9050919050565b612e6081612e45565b82525050565b6000602082019050612e7b6000830184612e57565b92915050565b612e8a81612e45565b8114612e9557600080fd5b50565b600081359050612ea781612e81565b92915050565b60008060408385031215612ec457612ec3612a82565b5b6000612ed285828601612e98565b9250506020612ee385828601612b68565b9150509250929050565b600080600060608486031215612f0657612f05612a82565b5b6000612f1486828701612e98565b9350506020612f2586828701612e98565b9250506040612f3686828701612b68565b9150509250925092565b612f4981612b47565b82525050565b600060c082019050612f646000830189612f40565b612f716020830188612e57565b612f7e6040830187612f40565b612f8b6060830186612b1d565b8181036080830152612f9d8185612d9d565b905081810360a0830152612fb18184612d9d565b9050979650505050505050565b612fc781612b47565b82525050565b612fd681612e45565b82525050565b612fe581612b11565b82525050565b600082825260208201905092915050565b600061300782612d4e565b6130118185612feb565b9350613021818560208601612d6a565b61302a81612b87565b840191505092915050565b600060c08301600083015161304d6000860182612fbe565b5060208301516130606020860182612fcd565b5060408301516130736040860182612fbe565b5060608301516130866060860182612fdc565b506080830151848203608086015261309e8282612ffc565b91505060a083015184820360a08601526130b88282612ffc565b9150508091505092915050565b600060208201905081810360008301526130df8184613035565b905092915050565b60006130f282612e25565b9050919050565b613102816130e7565b82525050565b600060208201905061311d60008301846130f9565b92915050565b60006020828403121561313957613138612a82565b5b600061314784828501612e98565b91505092915050565b60006020820190506131656000830184612f40565b92915050565b6000806040838503121561318257613181612a82565b5b600061319085828601612b68565b92505060206131a185828601612e98565b9150509250929050565b6131b481612b11565b81146131bf57600080fd5b50565b6000813590506131d1816131ab565b92915050565b600080604083850312156131ee576131ed612a82565b5b60006131fc85828601612e98565b925050602061320d858286016131c2565b9150509250929050565b6000806040838503121561322e5761322d612a82565b5b600061323c85828601612b68565b925050602061324d85828601612b68565b9150509250929050565b600067ffffffffffffffff82111561327257613271612b98565b5b61327b82612b87565b9050602081019050919050565b600061329b61329684613257565b612bf8565b9050828152602081018484840111156132b7576132b6612b82565b5b6132c2848285612c44565b509392505050565b600082601f8301126132df576132de612b7d565b5b81356132ef848260208601613288565b91505092915050565b6000806000806080858703121561331257613311612a82565b5b600061332087828801612e98565b945050602061333187828801612e98565b935050604061334287828801612b68565b925050606085013567ffffffffffffffff81111561336357613362612a87565b5b61336f878288016132ca565b91505092959194509250565b6000806040838503121561339257613391612a82565b5b60006133a085828601612e98565b92505060206133b185828601612e98565b9150509250929050565b7f4e487b7100000000000000000000000000000000000000000000000000000000600052601160045260246000fd5b60006133f582612b47565b91507fffffffffffffffffffffffffffffffffffffffffffffffffffffffffffffffff8203613427576134266133bb565b5b600182019050919050565b7f4e487b7100000000000000000000000000000000000000000000000000000000600052602260045260246000fd5b6000600282049050600182168061347957607f821691505b60208210810361348c5761348b613432565b5b50919050565b7f4552433732313a20617070726f76616c20746f2063757272656e74206f776e6560008201527f7200000000000000000000000000000000000000000000000000000000000000602082015250565b60006134ee602183612d59565b91506134f982613492565b604082019050919050565b6000602082019050818103600083015261351d816134e1565b9050919050565b7f4552433732313a20617070726f76652063616c6c6572206973206e6f7420746f60008201527f6b656e206f776e6572206f7220617070726f76656420666f7220616c6c000000602082015250565b6000613580603d83612d59565b915061358b82613524565b604082019050919050565b600060208201905081810360008301526135af81613573565b9050919050565b7f54686973204e4654206973206e6f7420666f722073616c652e00000000000000600082015250565b60006135ec601983612d59565b91506135f7826135b6565b602082019050919050565b6000602082019050818103600083015261361b816135df565b9050919050565b600061362d82612b47565b915061363883612b47565b9250817fffffffffffffffffffffffffffffffffffffffffffffffffffffffffffffffff0483118215151615613671576136706133bb565b5b828202905092915050565b7f4e487b7100000000000000000000000000000000000000000000000000000000600052601260045260246000fd5b60006136b682612b47565b91506136c183612b47565b9250826136d1576136d061367c565b5b828204905092915050565b7f496e73756666696369656e742066756e64732e00000000000000000000000000600082015250565b6000613712601383612d59565b915061371d826136dc565b602082019050919050565b6000602082019050818103600083015261374181613705565b9050919050565b600061375382612b47565b915061375e83612b47565b925082821015613771576137706133bb565b5b828203905092915050565b7f4552433732313a2063616c6c6572206973206e6f7420746f6b656e206f776e6560008201527f72206f7220617070726f76656400000000000000000000000000000000000000602082015250565b60006137d8602d83612d59565b91506137e38261377c565b604082019050919050565b60006020820190508181036000830152613807816137cb565b9050919050565b7f4552433732313a20696e76616c696420746f6b656e2049440000000000000000600082015250565b6000613844601883612d59565b915061384f8261380e565b602082019050919050565b6000602082019050818103600083015261387381613837565b9050919050565b7f4552433732313a2061646472657373207a65726f206973206e6f74206120766160008201527f6c6964206f776e65720000000000000000000000000000000000000000000000602082015250565b60006138d6602983612d59565b91506138e18261387a565b604082019050919050565b60006020820190508181036000830152613905816138c9565b9050919050565b7f4e465420646f6573206e6f742065786973742e00000000000000000000000000600082015250565b6000613942601383612d59565b915061394d8261390c565b602082019050919050565b6000602082019050818103600083015261397181613935565b9050919050565b7f596f7520646f206e6f74206f776e2074686973204e46542e0000000000000000600082015250565b60006139ae601883612d59565b91506139b982613978565b602082019050919050565b600060208201905081810360008301526139dd816139a1565b9050919050565b7f50726963652063616e6e6f74206265207a65726f2e0000000000000000000000600082015250565b6000613a1a601583612d59565b9150613a25826139e4565b602082019050919050565b60006020820190508181036000830152613a4981613a0d565b9050919050565b600081905092915050565b6000613a6682612d4e565b613a708185613a50565b9350613a80818560208601612d6a565b80840191505092915050565b6000613a988285613a5b565b9150613aa48284613a5b565b91508190509392505050565b7f4f776e61626c653a206e6577206f776e657220697320746865207a65726f206160008201527f6464726573730000000000000000000000000000000000000000000000000000602082015250565b6000613b0c602683612d59565b9150613b1782613ab0565b604082019050919050565b60006020820190508181036000830152613b3b81613aff565b9050919050565b7f4552433732313a207472616e736665722066726f6d20696e636f72726563742060008201527f6f776e6572000000000000000000000000000000000000000000000000000000602082015250565b6000613b9e602583612d59565b9150613ba982613b42565b604082019050919050565b60006020820190508181036000830152613bcd81613b91565b9050919050565b7f4552433732313a207472616e7366657220746f20746865207a65726f2061646460008201527f7265737300000000000000000000000000000000000000000000000000000000602082015250565b6000613c30602483612d59565b9150613c3b82613bd4565b604082019050919050565b60006020820190508181036000830152613c5f81613c23565b9050919050565b7f4f776e61626c653a2063616c6c6572206973206e6f7420746865206f776e6572600082015250565b6000613c9c602083612d59565b9150613ca782613c66565b602082019050919050565b60006020820190508181036000830152613ccb81613c8f565b9050919050565b7f4552433732313a20617070726f766520746f2063616c6c657200000000000000600082015250565b6000613d08601983612d59565b9150613d1382613cd2565b602082019050919050565b60006020820190508181036000830152613d3781613cfb565b9050919050565b7f4552433732313a207472616e7366657220746f206e6f6e20455243373231526560008201527f63656976657220696d706c656d656e7465720000000000000000000000000000602082015250565b6000613d9a603283612d59565b9150613da582613d3e565b604082019050919050565b60006020820190508181036000830152613dc981613d8d565b9050919050565b600081519050919050565b600082825260208201905092915050565b6000613df782613dd0565b613e018185613ddb565b9350613e11818560208601612d6a565b613e1a81612b87565b840191505092915050565b6000608082019050613e3a6000830187612e57565b613e476020830186612e57565b613e546040830185612f40565b8181036060830152613e668184613dec565b905095945050505050565b600081519050613e8081612ab8565b92915050565b600060208284031215613e9c57613e9b612a82565b5b6000613eaa84828501613e71565b91505092915050565b7f4552433732313a206d696e7420746f20746865207a65726f2061646472657373600082015250565b6000613ee9602083612d59565b9150613ef482613eb3565b602082019050919050565b60006020820190508181036000830152613f1881613edc565b9050919050565b7f4552433732313a20746f6b656e20616c7265616479206d696e74656400000000600082015250565b6000613f55601c83612d59565b9150613f6082613f1f565b602082019050919050565b60006020820190508181036000830152613f8481613f48565b905091905056fea2646970667358221220f325ed8c4803952fd4a429ded46b87501f39d62abf187fd5e8e643aced7cc24064736f6c634300080d0033",
  "immutableReferences": {
    "3034": [
      {
        "length": 32,
        "start": 3501
      },
      {
        "length": 32,
        "start": 4978
      }
    ]
  },
  "source": "// SPDX-License-Identifier: MIT\npragma solidity ^0.8.13;\n\n// import \"@openzeppelin/contracts/token/ERC721/ERC721.sol\";\n// // import \"@openzeppelin/contracts/utils/math/SafeMath.sol\";\n// import \"@openzeppelin/contracts/access/Ownable.sol\";\n\n// contract NFTMarketplace is ERC721, Ownable {\n//     // using SafeMath for uint256;\n\n//     struct NFT {\n//         uint256 id;\n//         address owner;\n//         uint256 price;\n//         bool forSale;\n//         string name;\n//         string description;\n//     }\n    \n//     mapping(uint256 => NFT) private nfts;\n//     uint256 private nftCounter;\n    \n//     // constructor() ERC721(\"MyNFT\", \"MNFT\") {}\n\n//     uint256 public commissionPercentage;\n//     address payable public immutable commisionOwner;\n\n//     constructor(string memory name, string memory symbol, uint256 commission) ERC721(name, symbol) {\n//         commissionPercentage = commission;\n//         commisionOwner = payable(msg.sender);\n//     }\n\n//     function setCommissionPercentage(uint256 commission) public onlyOwner {\n//         commissionPercentage = commission;\n//     }\n\n//     function mintNFT() public {\n//         nftCounter++;\n//         _safeMint(msg.sender, nftCounter);\n//         nfts[nftCounter] = NFT(nftCounter, msg.sender, 0, false, \"\", \"\");\n//     }\n    \n//     function createNFT(uint256 id, string memory name, string memory description) public {\n//         nftCounter++;\n//         _safeMint(msg.sender, id);\n//         nfts[id] = NFT(id, msg.sender, 0, false, name, description);\n//     }\n    \n//     function getNFT(uint256 id) public view returns (NFT memory) {\n//         return nfts[id];\n//     }\n\n//     function transferNFT(address from, address to, uint256 tokenId) public {\n//         require(_exists(tokenId), \"NFT does not exist\");\n//         require(ownerOf(tokenId) == from, \"Sender is not the owner\");\n//         require(getNFT(tokenId).forSale == false, \"NFT is currently for sale\");\n\n//         safeTransferFrom(from, to, tokenId);\n//         nfts[tokenId].owner = to;\n//     }\n\n//     function listNFTForSale(uint256 id, uint256 price) public {\n//         require(_exists(id), \"NFT does not exist\");\n//         require(ownerOf(id) == msg.sender, \"Only the NFT owner can list it for sale\");\n//         require(getNFT(id).forSale == false, \"NFT is already listed for sale\");\n//         // require(price > 0, \"Price cannot be zero.\");\n        \n//         nfts[id].forSale = true;\n//         nfts[id].price = price;\n//     }\n\n//     function removeNFTFromSale(uint256 id) public {\n//         require(_exists(id), \"NFT does not exist\");\n//         require(ownerOf(id) == msg.sender, \"Sender is not the owner\");\n//         require(getNFT(id).forSale == true, \"NFT is not currently for sale\");\n//         nfts[id].forSale = false;\n//     }\n\n//     function purchaseNFT(uint256 id) public payable {\n//         require(_exists(id), \"NFT does not exist\");\n//         require(nfts[id].forSale == true, \"NFT is not listed for sale\");\n//         require(msg.value == nfts[id].price, \"Incorrect Ether value sent\");\n//         require(_isApprovedOrOwner(msg.sender, id),\"ERC721: caller is not token owner or approved\");\n\n//         // uint256 commission = nfts[id].price*(commissionPercentage)/100;\n//         require(msg.value == nfts[id].price, \"Incorrect Ether value send\");\n\n//         // address seller = ownerOf(id);\n//         address payable seller = payable(ownerOf(id));\n//         uint256 salePrice = nfts[id].price;\n//         // uint256 salePrice = nfts[id].price - commission;\n//         seller.transfer(salePrice);\n        \n//         safeTransferFrom(seller, msg.sender, id);\n\n//         nfts[id].owner = msg.sender;\n//         nfts[id].forSale = false;\n//         nfts[id].price = 0;\n\n//         // payable(seller).transfer(salePrice);\n\n//         uint256 amountToRefund = msg.value - salePrice;\n//         if (amountToRefund > 0) {\n//             payable(msg.sender).transfer(amountToRefund);\n//         }\n\n//         // payable(seller).transfer(nfts[id].price - commission);\n//         // payable(commisionOwner).transfer(commission);\n\n//         // emit NFTSold(id, nfts[id].price, msg.sender, seller);\n        \n//         // address payable seller = payable(nfts[id].owner);\n//         // uint256 amount = nfts[id].price;\n//         // seller.transfer(amount);\n//         // payable(owner()).transfer(commission);\n//         // _transfer(seller, msg.sender, id);\n//     }\n\n// }\n\nimport \"@openzeppelin/contracts/token/ERC721/ERC721.sol\";\nimport \"@openzeppelin/contracts/utils/math/SafeMath.sol\";\nimport \"@openzeppelin/contracts/access/Ownable.sol\";\n\ncontract NFTMarketplace is ERC721, Ownable {\n    using SafeMath for uint256;\n\n    struct NFT {\n        uint256 id;\n        address owner;\n        uint256 price;\n        bool forSale;\n        string name;\n        string description;\n    }\n\n    mapping (uint256 => NFT) public nfts;\n\n    uint256 public nftCounter;\n    uint256 public commissionPercentage;\n    address payable public immutable commisionOwner;\n\n    constructor(string memory name, string memory symbol, uint256 commission) ERC721(name, symbol) {\n        commissionPercentage = commission;\n        commisionOwner = payable(msg.sender);\n    }\n\n    // constructor(string memory name, string memory symbol, uint256 commission) ERC721(name, symbol) {\n    //     commissionPercentage = commission;\n    //     commisionOwner = payable(msg.sender);\n    // }\n\n\n    function mintNFT() public {\n        nftCounter++;\n        _safeMint(msg.sender, nftCounter);\n        nfts[nftCounter] = NFT(nftCounter, msg.sender, 0, false, \"\", \"\");\n    }\n\n    function createNFT(uint256 id, string memory name, string memory description) public {\n        nftCounter++;\n        _safeMint(msg.sender, id);\n        nfts[nftCounter] = NFT(id, msg.sender, 0, false, name, description);\n    }\n\n    function getNFT(uint256 id) public view returns (NFT memory) {\n        return nfts[id];\n    }\n\n    function transferNFT(uint256 id, address to) public {\n        require(_exists(id), \"NFT does not exist.\");\n        require(ownerOf(id) == msg.sender, \"You do not own this NFT.\");\n        safeTransferFrom(msg.sender, to, id);\n        nfts[id].owner = to;\n    }\n\n    function listNFTForSale(uint256 id, uint256 price) public {\n        require(ownerOf(id) == msg.sender, \"You do not own this NFT.\");\n        require(price > 0, \"Price cannot be zero.\");\n        nfts[id].price = price;\n        nfts[id].forSale = true;\n    }\n\n    function removeNFTFromSale(uint256 id) public {\n        require(ownerOf(id) == msg.sender, \"You do not own this NFT.\");\n        require(nfts[id].forSale == true, \"This NFT is not for sale.\");\n        nfts[id].price = 0;\n        nfts[id].forSale = false;\n    }\n\n    // function purchaseNFT(uint256 id) public payable {\n    //     require(nfts[id].forSale == true, \"This NFT is not for sale.\");\n    //     uint256 commission = nfts[id].price*(commissionPercentage)/100;\n    //     require(msg.value >= nfts[id].price+commission, \"Insufficient funds.\");\n    //     address payable seller = payable(nfts[id].owner);\n    //     uint256 amount = nfts[id].price;\n    //     seller.transfer(amount);\n    //     payable(owner()).transfer(commission);\n    //     _transfer(seller, msg.sender, id);\n    //     nfts[id].owner = msg.sender;\n    //     nfts[id].price = 0;\n    //     nfts[id].forSale = false;\n    // }\n\n    // commission\n    function purchaseNFT(uint256 id) public payable {\n        require(nfts[id].forSale == true, \"This NFT is not for sale.\");\n        uint256 commission = nfts[id].price * (commissionPercentage) / 100;//\n        //msg->buyer, ETH  NFT\n        require(msg.value >= nfts[id].price, \"Insufficient funds.\");\n\n        //  NFT  NFT \n        //  transfer  amount NFT \n        //  commission transfer \n        address payable seller = payable(nfts[id].owner);//nft\n        uint256 amount = nfts[id].price;//nft\n        seller.transfer(amount-commission);//\n        commisionOwner.transfer(commission);//\n        \n        // NFT sellerbuyer NFT  0  false NFT \n        _transfer(seller, msg.sender, id);\n        nfts[id].owner = msg.sender;\n        nfts[id].price = 0;\n        nfts[id].forSale = false;\n    }\n\n// // \n//     function purchaseNFT(uint256 id) public payable {\n//         require(nfts[id].forSale == true, \"This NFT is not for sale.\");\n//         require(nfts[id].price > 0, \"Price cannot be zero.\");\n\n//         // uint256 commission = nfts[id].price * (commissionPercentage) / 100;//\n//         //msg->buyer, ETH  NFT\n//         require(msg.value >= nfts[id].price , \"Insufficient funds.\");\n\n//         //  NFT  NFT \n//         //  transfer  amount NFT \n//         //  commission transfer \n//         address payable seller = payable(nfts[id].owner);//nft\n//         uint256 amount = nfts[id].price;//nft\n//         seller.transfer(amount);//\n//         // commisionOwner.transfer(commission);//\n        \n//         // NFT sellerbuyer NFT  0  false NFT \n//         _transfer(seller, msg.sender, id);\n//         nfts[id].owner = msg.sender;\n//         nfts[id].price = 0;\n//         nfts[id].forSale = false;\n//     }\n\n//     // function setCommissionPercentage(uint256 commission) public onlyOwner {\n//     //     commissionPercentage = commission;\n//     // }\n\n    function withdraw() public onlyOwner {\n        payable(owner()).transfer(address(this).balance);\n    }\n}\n",
  "sourcePath": "/Users/lizixuan/Desktop/6883/mycontract/contracts/NFTMarketplace.sol",
  "compiler": {
    "name": "solc",
    "version": "0.8.13+commit.abaa5c0e.Emscripten.clang"
  },
  "schemaVersion": "3.4.13",
  "updatedAt": "2023-05-06T23:00:14.155Z",
  "networkType": "ethereum",
  "devdoc": {
    "kind": "dev",
    "methods": {
      "approve(address,uint256)": {
        "details": "See {IERC721-approve}."
      },
      "balanceOf(address)": {
        "details": "See {IERC721-balanceOf}."
      },
      "getApproved(uint256)": {
        "details": "See {IERC721-getApproved}."
      },
      "isApprovedForAll(address,address)": {
        "details": "See {IERC721-isApprovedForAll}."
      },
      "name()": {
        "details": "See {IERC721Metadata-name}."
      },
      "owner()": {
        "details": "Returns the address of the current owner."
      },
      "ownerOf(uint256)": {
        "details": "See {IERC721-ownerOf}."
      },
      "renounceOwnership()": {
        "details": "Leaves the contract without owner. It will not be possible to call `onlyOwner` functions anymore. Can only be called by the current owner. NOTE: Renouncing ownership will leave the contract without an owner, thereby removing any functionality that is only available to the owner."
      },
      "safeTransferFrom(address,address,uint256)": {
        "details": "See {IERC721-safeTransferFrom}."
      },
      "safeTransferFrom(address,address,uint256,bytes)": {
        "details": "See {IERC721-safeTransferFrom}."
      },
      "setApprovalForAll(address,bool)": {
        "details": "See {IERC721-setApprovalForAll}."
      },
      "supportsInterface(bytes4)": {
        "details": "See {IERC165-supportsInterface}."
      },
      "symbol()": {
        "details": "See {IERC721Metadata-symbol}."
      },
      "tokenURI(uint256)": {
        "details": "See {IERC721Metadata-tokenURI}."
      },
      "transferFrom(address,address,uint256)": {
        "details": "See {IERC721-transferFrom}."
      },
      "transferOwnership(address)": {
        "details": "Transfers ownership of the contract to a new account (`newOwner`). Can only be called by the current owner."
      }
    },
    "version": 1
  },
  "userdoc": {
    "kind": "user",
    "methods": {},
    "version": 1
  }
}